:100000000C945E000C9486000C9486000C94860080
:100010000C9486000C9486000C9486000C94860048
:100020000C9486000C9486000C9486000C942D0988
:100030000C9486000C9486000C9486000C94860028
:100040000C94E3080C9486000C94B1080C948B0873
:100050000C9486000C9486000C9486000C94860008
:100060000C9486000C948600000000080002010039
:100070000003040700000000000000000000000072
:10008000250028002B0000000000240027002A0083
:10009000040404040404040402020202020203032E
:1000A0000303030301020408102040800102040836
:1000B0001020010204081020E909BB0B11241FBE07
:1000C000CFEFD8E0DEBFCDBF11E0A0E0B1E0E6EFBA
:1000D000FDE102C005900D92A437B107D9F722E0E7
:1000E000A4E7B1E001C01D92A53AB207E1F710E024
:1000F000CDE5D0E004C02197FE010E94E20CCC3592
:10010000D107C9F70E94BB0A0C94EE0E0C940000B4
:100110008F929F92AF92BF92FF920F931F93CF93B4
:10012000DF93F0909E022BE02F1508F44CC0209135
:10013000A00208E512E0021B110927FD1395000F2C
:10014000111F000F111F20919F02C8E8D0E0C21BB1
:10015000D10927FDD395CC0FDD1FCC0FDD1F4E013C
:100160000D2E000CAA08BB089801012E000C440BB0
:10017000550B281939094A095B09DC010E94660CF4
:1001800024EB30E040E050E00E943C0C820E931ED5
:10019000A41EB51E8C169D062CF0E8018016910653
:1001A0000CF4E4012297CC0FDD1F2FB7F8948F2DAC
:1001B00090E0FC01EE0FFF1FE80FF91FE55DFD4F1A
:1001C000D283C1832FBFDF91CF911F910F91FF90F9
:1001D000BF90AF909F908F9008950895AF92BF9277
:1001E000CF92DF92EF92FF920F931F93CF93DF9303
:1001F0006C017B018B01040F151FEB015E01AE1832
:10020000BF08C017D10759F06991D601ED91FC9153
:100210000190F081E02DC6010995892B79F7C50180
:10022000DF91CF911F910F91FF90EF90DF90CF90D2
:10023000BF90AF900895CF93DF93FC014481558127
:10024000608171818EE891E00E94EE00EC0142E055
:1002500050E068E171E08EE891E00E94EE008C0FC2
:100260009D1FDF91CF910895FC01538D448D252F63
:1002700030E0842F90E0821B930B541710F0CF9640
:10028000089501970895FC01918D828D981761F072
:10029000A28DAE0FBF2FB11D5D968C91928D9F5F89
:1002A0009F73928F90E008958FEF9FEF08952FB77F
:1002B000F89480918A0190918B01A0918C01B0916A
:1002C0008D012FBF8093960190939701A093980181
:1002D000B09399018EE891E00E94430197FF26C0F8
:1002E0002FB7F89480918A0190918B01A0918C0195
:1002F000B0918D012FBF409196015091970160916F
:10030000980170919901841B950BA60BB70B409136
:10031000920150919301609194017091950184171D
:100320009507A607B707B0F28FEF9FEF0895FC017E
:10033000918D828D981731F0828DE80FF11D858D9A
:1003400090E008958FEF9FEF0895FC01918D228D2D
:10035000892F90E0805C9F4F821B91098F739927B2
:1003600008958EE891E00E94A50121E0892B09F40F
:1003700020E0822F089580E090E0892B29F00E94F0
:10038000B10181110C9400000895FC01A48DA80F07
:10039000B92FB11DA35ABF4F2C91848D90E00196C7
:1003A0008F739927848FA689B7892C93A089B189E7
:1003B0008C91837080648C93938D848D981306C088
:1003C0000288F389E02D80818F7D80830895EF92EC
:1003D000FF920F931F93CF93DF93EC0181E0888FFF
:1003E0009B8D8C8D98131AC0E889F989808185FFCF
:1003F00015C09FB7F894EE89FF896083E889F98971
:1004000080818370806480839FBF81E090E0DF9172
:10041000CF911F910F91FF90EF900895F62E0B8DC5
:1004200010E00F5F1F4F0F731127E02E8C8D8E1180
:100430000CC00FB607FCFACFE889F989808185FFE7
:10044000F5CFCE010E94C501F1CFEB8DEC0FFD2F52
:10045000F11DE35AFF4FF0829FB7F8940B8FEA89A2
:10046000FB8980818062CFCFCF93DF93EC01888DB1
:100470008823B9F0AA89BB89E889F9898C9185FD1F
:1004800003C0808186FD0DC00FB607FCF7CF8C91AD
:1004900085FFF2CF808185FFEDCFCE010E94C5019F
:1004A000E9CFDF91CF91089590E0FC01E859FF4F2B
:1004B0002491FC01EC55FF4F3491FC01E057FF4FB4
:1004C000E491EE23C9F0222339F0233001F1A8F49E
:1004D000213019F1223029F1F0E0EE0FFF1FE4582E
:1004E000FF4FA591B4918FB7F894EC91611126C09C
:1004F00030953E233C938FBF08952730A9F02830D4
:10050000C9F0243049F7809180008F7D03C080912D
:1005100080008F7780938000DFCF84B58F7784BD94
:10052000DBCF84B58F7DFBCF8091B0008F77809338
:10053000B000D2CF8091B0008F7DF9CF3E2BDACFC3
:100540008E50806480937C0080917A0080648093D8
:100550007A0080917A0086FDFCCF8091780090919E
:10056000790008953FB7F8948091860190918701B2
:10057000A0918801B091890126B5A89B05C02F3FA5
:1005800019F00196A11DB11D3FBFBA2FA92F982FB9
:100590008827BC01CD01620F711D811D911D42E0B4
:1005A000660F771F881F991F4A95D1F70895CF923C
:1005B000DF92EF92FF920F931F93CF93DF93FC0193
:1005C0002081222309F457C0EC018185928501978F
:1005D00009F04EC02FB7F89460918A0170918B0199
:1005E00080918C0190918D012FBF0B891C892D89E1
:1005F0003E896B017C01C01AD10AE20AF30A098123
:100600001A812B813C81C016D106E206F30698F1CF
:100610006B8B7C8B8D8B9E8B8B859C85AD85BE85F6
:100620004D815E816F817885481B590B6A0B7B0B6E
:10063000413051056105710549F48F3FFFEF9F0778
:10064000AF07BF0719F01882188A1F860196A11DEF
:10065000B11D8B879C87AD87BE87E989FA89DF91B9
:10066000CF911F910F91FF90EF90DF90CF90099461
:100670000E94B202BACFDF91CF911F910F91FF90EC
:10068000EF90DF90CF900895CF93DF93FC01218905
:100690003289232BF1F0EC01818592850197E1F4F9
:1006A0002FB7F89480918A0190918B01A0918C01D1
:1006B000B0918D012FBF838B948BA58BB68B81E07E
:1006C00088831B861C861D861E8681E090E0988BA1
:1006D0008F87DF91CF9108950E94B2026B8B7C8B44
:1006E0008D8B9E8BECCFFC0124813581232B39F43B
:1006F00021E0FB018081882349F020E007C0808150
:1007000091810E94DE0E21E0892BB9F7822F089596
:100710000F931F93CF93DF938C01EB01FC0180813A
:1007200091810097E1F06881798161157105A9F0E7
:10073000428153812C813D814217530770F00E9402
:10074000E70E8C819D81F801958384831D821C8234
:10075000DF91CF911F910F9108950E94840D8881A0
:100760009981F801918380838A819B81938382831D
:100770008C819D8195838483198218821B821A82C1
:10078000E5CFCF93DF93EC0188819981009711F039
:100790000E94840D198218821D821C821B821A827B
:1007A000DF91CF910895FC0180819181009711F034
:1007B0000C94840D08950F931F93CF93DF93EC0156
:1007C00088819981009759F02A813B812617370744
:1007D00030F081E0DF91CF911F910F9108958B014F
:1007E0006F5F7F4F0E940D0E009759F099838883A9
:1007F0001B830A832C813D81232B59F7FC01108236
:10080000E8CF80E0E7CFEF92FF920F931F93CF9353
:10081000DF936115710541F480E0DF91CF911F9165
:100820000F91FF90EF90089541155105B1F07B01B4
:10083000EC010C811D81040F151FB8010E94DB0320
:10084000882351F3288139818C819D81B701820FE2
:10085000931F0E94E70E1D830C8381E0DECFCF93B0
:10086000DF93EC01FB0101900020E9F73197AF0124
:10087000461B570B0E940304811103C0CE010E9446
:10088000C103CE01DF91CF910895CF93DF93EC01A7
:10089000FB0144815581608171810E9403048111B3
:1008A00003C0CE010E94C103CE01DF91CF91089514
:1008B000EF92FF920F931F93CF93DF93EC017B0195
:1008C0008A01BA010E94DB0381110BC0CE010E9494
:1008D000C103CE01DF91CF911F910F91FF90EF9057
:1008E00008951D830C83B701888199810E94E70ECA
:1008F000F0CFFB0101900020E9F73197AF01461BD3
:10090000570B0C9458040F931F93CF93DF93CDB7DD
:10091000DEB762970FB6F894DEBF0FBECDBF8C0175
:10092000CB01F80111821082138212821582148287
:100930004AE0BE016F5F7F4F0E94F20BBE016F5F06
:100940007F4FC8010E94790462960FB6F894DEBF0B
:100950000FBECDBFDF91CF911F910F910895FC0184
:10096000118210821382128215821482FB0101907F
:100970000020E9F73197AF01461B570B0C94580440
:10098000CF92DF92EF92FF920F931F93CF93DF935B
:100990006C017B018A014617570720F48F2D7A01DD
:1009A000062F182F6AE171E0C6010E94AF04C091C2
:1009B0009C02D0919D02EC16FD06F8F40C171D0761
:1009C00008F4E801E0919802F0919902EC0FFD1F04
:1009D0001081108260919802709199026E0D7F1DB6
:1009E000C6016115710599F00E9479048091980201
:1009F00090919902C80FD91F1883C601DF91CF913A
:100A00001F910F91FF90EF90DF90CF9008950E947B
:100A1000C103ECCF6F927F928F929F92AF92BF9261
:100A2000CF92DF92EF92FF920F931F93CF93DF93BA
:100A3000CDB7DEB768970FB6F894DEBF0FBECDBF57
:100A40005C017B018A0169013C0185E6681A710835
:100A500083E66816710440F4CB01C397C19720F474
:100A6000CA01C397C19740F067E371E0C6010E94D5
:100A70007303882309F458C090E080E00E94880046
:100A800067E371E086E892E00E94790460917E015C
:100A900070917F01CE0143960E9483046091800192
:100AA00070918101CE010D960E94830460918201B4
:100AB00070918301CE0107960E9483046BE171E07F
:100AC000CE0101960E94AF04BE01695F7F4FCE0147
:100AD00001960E94450461E271E00E942F04BE016C
:100AE000635F7F4F0E94450469E271E00E942F041A
:100AF000BE016D5E7F4F0E94450460E371E00E947D
:100B00002F040E941B01CE0101960E94D303CE0147
:100B100007960E94D303CE010D960E94D303CE0107
:100B200043960E94D30341C0450183E3881A91088C
:100B300081E38816910458F4C701855691098336DC
:100B4000910528F4C801C397C19708F443C063E432
:100B500071E0C6010E94730381113CC081E38816D5
:100B6000910408F47BC060E571E0C6010E94730344
:100B7000811180C081E0A81AB10881E3A816B104F0
:100B800008F4BCC06CE571E0C6010E9473038111DA
:100B9000BFC083E66816710408F4FEC06AE671E01F
:100BA000C6010E947303811105C168960FB6F894BF
:100BB000DEBF0FBECDBFDF91CF911F910F91FF9090
:100BC000EF90DF90CF90BF90AF909F908F907F90ED
:100BD0006F90089584EB90E00E94880063E471E0D8
:100BE00086E892E00E94790460917E0170917F0115
:100BF000CE0143960E94830460918001709181012F
:100C0000CE010D960E948304609182017091830150
:100C1000CE0107960E9483046BE171E0CE0101963C
:100C20000E94AF04BE01695F7F4FCE0101960E9412
:100C3000450461E271E00E942F04BE01635F7F4FB3
:100C40000E94450469E271E00E942F04BE016D5EBE
:100C50007F4F0E9445046CE371E051CFC701C397F9
:100C6000C19708F080CFC801855691098336910558
:100C700008F079CF88E790E00E94880060E571E095
:100C800086E892E00E94790460917E0170917F0174
:100C9000CE0143960E94830460918001709181018E
:100CA000CE010D960E9483046091820170918301B0
:100CB000CE0107960E9483046BE171E0CE0101969C
:100CC0000E94AF04BE01695F7F4FCE0101960E9472
:100CD000450461E271E00E942F04BE01635F7F4F13
:100CE0000E94450469E271E00E942F04BE016D5E1E
:100CF0007F4F0E94450469E471E001CFC70101976D
:100D0000C19708F03FCFC8010197C19708F03ACFCB
:100D10008CE390E00E9488006CE571E086E892E048
:100D20000E94790460917E0170917F01CE0143960B
:100D30000E9483046091800170918101CE010D9623
:100D40000E9483046091820170918301CE01079615
:100D50000E9483046BE171E0CE0101960E94AF0412
:100D6000BE01695F7F4FCE0101960E94450461E29A
:100D700071E00E942F04BE01635F7F4F0E94450413
:100D800069E271E00E942F04BE016D5E7F4F0E94F8
:100D9000450465E571E0B3CE85E6E81AF10883E61F
:100DA000E816F10408F0FACE0353110901331105D6
:100DB00008F0F4CE8AE590E00E9488006AE671E0CF
:100DC00086E892E00E94790460917E0170917F0133
:100DD000CE0143960E94830460918001709181014D
:100DE000CE010D960E94830460918201709183016F
:100DF000CE0107960E9483046BE171E0CE0101965B
:100E00000E94AF04BE01695F7F4FCE0101960E9430
:100E1000450461E271E00E942F04BE01635F7F4FD1
:100E20000E94450469E271E00E942F04BE016D5EDC
:100E30007F4F0E94450463E671E061CECF92DF925E
:100E4000EF92FF920F931F93CF93DF9300D000D0C8
:100E500000D0CDB7DEB780E10E94A00297FD0396D7
:100E60006C01D594C794D594C794D0928301C09255
:100E700082018FE00E94A00297FD03967C01F59409
:100E8000E794F594E794F0928101E09280018EE07E
:100E90000E94A00297FD03968C0115950795159564
:100EA000079510937F0100937E0180917C019091C2
:100EB0007D01C816D906C1F180917A0190917B011C
:100EC000E816F90689F18091780190917901081767
:100ED000190751F162E771E0CE0101960E94AF045B
:100EE0009E012F5F3F4FA801B701C6010E940A056E
:100EF000CE0101960E94D3038091820190918301DB
:100F000090937D0180937C0180918001909181017B
:100F100090937B0180937A0180917E0190917F0173
:100F2000909379018093780126960FB6F894DEBFEE
:100F30000FBECDBFDF91CF911F910F91FF90EF902A
:100F4000DF90CF900895EF92FF920F931F93CF936E
:100F5000DF93CDB7DEB728970FB6F894DEBF0FBE8C
:100F6000CDBF80E10E94A00297FD039695958795DD
:100F70009595879590938301809382018FE00E94DD
:100F8000A00297FD039695958795959587959093E3
:100F90008101809380018EE00E94A00297FD03965C
:100FA000959587959595879590937F0180937E0180
:100FB0006AE171E0CE0101960E94AF040E945701E0
:100FC00097FD0CC08F83188641E050E0BE01695F39
:100FD0007F4FCE0101960E940304F0CFBE016F5FE8
:100FE0007F4F88E992E00E948803CE0101960E941B
:100FF000D30380919C0290919D02892B71F0E09027
:101000009802F09099026AE370E0C7010E94D30E43
:101010008C010E191F09892B11F40FEF1FEF10938C
:10102000770100937601A80170E060E0CE0101969F
:101030000E94C004BE016F5F7F4F82E992E00E9470
:101040008803CE0101960E94D30380919202909171
:101050009302009791F10E94CB0B7B017093750175
:101060006093740140919C0250919D02B8016F5FA2
:101070007F4FCE0101960E94C004BE016F5F7F4F7B
:101080008CE892E00E948803CE0101960E94D3036F
:1010900082E0E816F104A9F083E0E816F104B1F06B
:1010A00028960FB6F894DEBF0FBECDBFDF91CF916B
:1010B0001F910F91FF90EF90089560E070E0CB01D9
:1010C000CCCF86E892E00E941B01EACF60918C02AF
:1010D00070918D021A8219821C821B821E821D82CF
:1010E0006115710541F04091900250919102CE013D
:1010F00001960E9458049E012F5F3F4F4FEF5FEF14
:101100006FEF7FEF8FEF9FEF0E940A05CE010196F0
:101110000E94D303C5CF1F920F920FB60F921124D6
:101120002F933F934F935F936F937F938F939F93EF
:10113000AF93BF93EF93FF938EE891E00E94C501B8
:10114000FF91EF91BF91AF919F918F917F916F919F
:101150005F914F913F912F910F900FBE0F901F9075
:1011600018951F920F920FB60F9211242F938F9301
:101170009F93EF93FF93E0919E01F0919F018081F7
:10118000E091A401F091A50182FD1BC090818091A6
:10119000A7018F5F8F732091A801821741F0E09122
:1011A000A701F0E0E257FE4F958F8093A701FF91D2
:1011B000EF919F918F912F910F900FBE0F901F90E5
:1011C00018958081F4CF1F920F920FB60F921124C1
:1011D0002F933F938F939F93AF93BF9380918A01F7
:1011E00090918B01A0918C01B0918D01309185017E
:1011F00023E0230F2D3758F50196A11DB11D209333
:10120000850180938A0190938B01A0938C01B09308
:101210008D018091860190918701A0918801B09104
:1012200089010196A11DB11D8093860190938701CC
:10123000A0938801B0938901BF91AF919F918F9145
:101240003F912F910F900FBE0F901F90189526E899
:10125000230F0296A11DB11DD2CF1F920F920FB680
:101260000F9211242F933F934F935F936F937F932C
:101270008F939F93AF93BF93CF93DF93EF93FF939E
:1012800080918401C0914F02D0E087FF24C010926A
:10129000850010928400809184018F5F8093840187
:1012A00080918401082E000C990B8C179D0724F463
:1012B000809184018C30C4F18091840090918500EC
:1012C000049680349C4908F47AC0809184009091FF
:1012D0008500049676C080918401082E000C990B3D
:1012E0008C179D07C4F6E09184018E2FEE0F990BA9
:1012F000FC01EE0FFF1FE80FF91FE55DFD4F808138
:1013000086FFC9CFE09184018E2FEE0F990BFC016F
:10131000EE0FFF1FE80FF91FE55DFD4F808160E0D4
:101320008F730E945402B7CF2091840030918500C2
:10133000E09184018E2FEE0F990BFC01EE0FFF1F41
:10134000E80FF91FE55DFD4F81819281820F931FA8
:101350009093890080938800E09184018E2FEE0F96
:10136000990BFC01EE0FFF1FE80FF91FE55DFD4F24
:10137000808186FF11C0E09184018E2FEE0F990BC2
:10138000FC01EE0FFF1FE80FF91FE55DFD4F8081A7
:1013900061E08F730E945402FF91EF91DF91CF9132
:1013A000BF91AF919F918F917F916F915F914F917D
:1013B0003F912F910F900FBE0F901F90189580E4D2
:1013C0009CE990938900809388008FEF809384013B
:1013D000E3CF109291011092900188EE93E0A0E08B
:1013E000B0E08093920190939301A0939401B09305
:1013F00095018AE091E090938F0180938E0185ECB6
:1014000090E090939B0180939A0184EC90E09093FC
:101410009D0180939C0180EC90E090939F018093CC
:101420009E0181EC90E09093A1018093A00182EC59
:1014300090E09093A3018093A20186EC90E09093BA
:10144000A5018093A4011092A7011092A801109207
:10145000A9011092AA0180914F028C3008F087C038
:1014600091E0980F90934F0280939E0290E0FC01D0
:10147000EE0FFF1FE80FF91FE55DFD4F88EB9BE0C6
:10148000928381836AE171E088E992E00E94AF046F
:101490006AE171E082E992E00E94AF046AE171E0E2
:1014A0008CE892E00E94AF046AE171E086E892E085
:1014B0000E94AF04109275021092740280E492E4CC
:1014C000AFE0B0E080936C0290936D02A0936E0247
:1014D000B0936F0210927002109271021092720219
:1014E0001092730223EA37E030937D0220937C024E
:1014F00010926B0210927E0210927F021092800274
:101500001092810210927602109277021092780265
:101510001092790210925A0210925902809351024D
:1015200090935202A0935302B0935402109255022A
:101530001092560210925702109258028EE197E0D4
:1015400090936202809361021092500210926302A3
:1015500010926402109265021092660210925B0271
:1015600010925C0210925D0210925E0208958FEF5D
:1015700080939E0287CF789484B5826084BD84B5C1
:10158000816084BD85B5826085BD85B5816085BD7E
:1015900080916E00816080936E0010928100809136
:1015A00081008260809381008091810081608093BE
:1015B0008100809180008160809380008091B100E3
:1015C00084608093B1008091B00081608093B0000E
:1015D00080917A00846080937A0080917A008260A2
:1015E00080937A0080917A00816080937A00809164
:1015F0007A00806880937A001092C100E0919E0189
:10160000F0919F0182E08083E0919A01F0919B012B
:101610001082E0919C01F0919D018FEC80831092EB
:10162000A601E091A201F091A30186E08083E09100
:10163000A001F091A101808180618083E091A001EF
:10164000F091A101808188608083E091A001F091F8
:10165000A101808180688083E091A001F091A101C7
:1016600080818F7D808380919E028C3008F068C0DD
:10167000E7EAF0E02491E3E9F0E08491882399F02F
:1016800090E0880F991FFC01EA57FF4FA591B49194
:10169000FC01E458FF4F859194918FB7F894EC9139
:1016A000E22BEC938FBF80919E02282F30E0F9014E
:1016B000EE0FFF1FE20FF31FE55DFD4F9081907C61
:1016C0009360908310929F021092A0022CE0622FF0
:1016D0000E94D60C829FB001112430E020E0AB01C3
:1016E000420F531FFA01EE0FFF1FE40FF51FE55DD8
:1016F000FD4F908196FD16C02F5F3F4F2C30310576
:1017000071F781110FC01092800082E080938100F8
:101710001092850010928400B19A80916F008260CF
:1017200080936F00E0919E028E2F90E0FC01EE0FFF
:10173000FF1FE80FF91FE55DFD4F80818064808306
:101740008BE692E00E94440380E592E00E9444030D
:10175000C0E0D0E08BE692E00E94D70280E592E004
:101760000E94D7022097B1F30E94B101882391F320
:101770000E940000EFCF86E892E00E94D3038CE83D
:1017800092E00E94D30382E992E00E94D30388E9A9
:1017900092E00C94D3031F93FC0199278827BC0186
:1017A000E89411911032E9F3193010F01E30C8F3AB
:1017B0001B3251F01D3249F4689406C00E94FD0BA3
:1017C000610F711D811D911D119110531A30B0F3DD
:1017D0003EF490958095709561957F4F8F4F9F4F08
:1017E0001F910895BB274A3031F4992322F4BDE2BA
:1017F000909581959F4F0C94130C592F482F372F9C
:10180000262F660F771F881F991F660F771F881F67
:10181000991F620F731F841F951F660F771F881F04
:10182000991F0895BB27FB015527AA27880F991FE9
:10183000AA1FA41710F0A41B83955051B9F7A05DFF
:10184000AA3308F0A95DA193009779F7B111B1937C
:101850001192CB010C942C0CDC01FC01672F7191CF
:101860007723E1F7329704C07C916D937083629186
:10187000AE17BF07C8F30895052E97FB1EF400941A
:101880000E94530C57FD07D00E94A50C07FC03D003
:101890004EF40C94530C50954095309521953F4F44
:1018A0004F4F5F4F089590958095709561957F4F4C
:1018B0008F4F9F4F08950E94C70CA59F900DB49F16
:1018C000900DA49F800D911D11240895B7FF0C94D5
:1018D0005B0C0E945B0C821B930B08952F923F922E
:1018E0004F925F926F927F928F929F92AF92BF9230
:1018F000CF92DF92EF92FF920F931F93CF93DF93DC
:10190000CDB7DEB7CA1BDB0B0FB6F894DEBF0FBE38
:10191000CDBF09942A88398848885F846E847D8485
:101920008C849B84AA84B984C884DF80EE80FD8087
:101930000C811B81AA81B981CE0FD11D0FB6F894FD
:10194000DEBF0FBECDBFED010895A1E21A2EAA1B86
:10195000BB1BFD010DC0AA1FBB1FEE1FFF1FA2175F
:10196000B307E407F50720F0A21BB30BE40BF50B5C
:10197000661F771F881F991F1A9469F760957095E5
:10198000809590959B01AC01BD01CF010895A29F68
:10199000B001B39FC001A39F700D811D1124911D43
:1019A000B29F700D811D1124911D0895991B79E03E
:1019B00004C0991F961708F0961B881F7A95C9F7DF
:1019C00080950895EE0FFF1F0590F491E02D099486
:1019D0000F931F93CF93DF938230910510F482E031
:1019E00090E0E091A302F091A40230E020E0B0E0AA
:1019F000A0E0309799F42115310509F44AC0281B5D
:101A0000390B24303105D8F58A819B816115710528
:101A100089F1FB0193838283FE0111C040815181D2
:101A20000281138148175907E0F04817590799F4C4
:101A3000109761F012960C93129713961C9332969E
:101A4000CF01DF91CF911F910F9108950093A302D1
:101A50001093A402F4CF2115310551F0421753071A
:101A600038F0A901DB019A01BD01DF01F801C1CF06
:101A7000EF01F9CF9093A4028093A302CDCFFE0192
:101A8000E20FF31F81939193225031093983288308
:101A9000D7CF2091A1023091A202232B41F42091B3
:101AA0000201309103013093A2022093A102209100
:101AB0000001309101012115310541F42DB73EB7E8
:101AC0004091040150910501241B350BE091A102C6
:101AD000F091A202E217F307A0F42E1B3F0B281788
:101AE000390778F0AC014E5F5F4F2417350748F097
:101AF0004E0F5F1F5093A2024093A10281939193D6
:101B00009FCFF0E0E0E09CCFCF93DF930097E9F028
:101B1000FC01329713821282A091A302B091A40219
:101B2000ED0130E020E01097A1F420813181820F97
:101B3000931F2091A1023091A2022817390709F0C2
:101B400061C0F093A202E093A102DF91CF910895CA
:101B5000EA01CE17DF07E8F54A815B819E01411556
:101B60005105B1F7E901FB83EA8349915991C40F0B
:101B7000D51FEC17FD0761F4808191810296840FD7
:101B8000951FE90199838883828193819B838A834E
:101B9000F0E0E0E012968D919C9113970097B9F5D3
:101BA0002D913C911197CD010296820F931F2091A8
:101BB000A1023091A2022817390739F6309751F562
:101BC0001092A4021092A302B093A202A093A102C9
:101BD000BCCFD383C28340815181840F951FC81726
:101BE000D90761F44E5F5F4F88819981480F591F73
:101BF000518340838A819B819383828321153105A0
:101C000009F0B0CFF093A402E093A3029ECFFD01B0
:101C1000DC01C0CF13821282D7CFB0E0A0E0E3E1B5
:101C2000FEE00C94700C8C01009751F4CB010E94E3
:101C3000E80C8C01C801CDB7DEB7E0E10C948C0C48
:101C4000FC01E60FF71F9C0122503109E217F30750
:101C500008F49DC0D901CD91DC911197C617D70723
:101C600098F0C530D10530F3CE0104978617970759
:101C700008F3C61BD70B2297C193D1936D937C9326
:101C8000CF010E94840DD6CF5B01AC1ABD0A4C0176
:101C90008C0E9D1EA091A302B091A402512C412C48
:101CA000F12CE12C109731F58091A1029091A202C4
:101CB0008815990509F05CC04616570608F058C00B
:101CC0008091000190910101009741F48DB79EB77A
:101CD0004091040150910501841B950BE817F90709
:101CE00008F055C0F093A202E093A102F9017183BC
:101CF0006083A0CF8D919C91119712966C90129752
:101D000013967C901397A815B90559F56C0142E01C
:101D1000C40ED11CCA14DB0420F1AC014A195B09C2
:101D2000DA011296159780F06282738251834083A4
:101D3000D9016D937C93E114F10471F0D7011396EE
:101D4000FC93EE93129776CF22968C0F9D1FF9018C
:101D500091838083F301EFCFF093A402E093A30279
:101D600069CF4816590608F42C017D01D3019ACF9A
:101D7000CB010E94E80C7C01009749F0AE01B8014C
:101D80000E94CA0EC8010E94840D870153CF10E043
:101D900000E050CFFB01DC0102C001900D924150E8
:101DA0005040D8F70895FC018191861721F08823CF
:101DB000D9F7992708953197CF010895FB01DC01E8
:101DC0008D91019080190110D9F3990B0895FB01B1
:101DD000DC0101900D920020E1F7089510E0CDE5BF
:101DE000D0E004C0FE010E94E20C2196CE35D1075E
:061DF000C9F7F894FFCFD3
:101DF6000000A502800000000000E701EE003401AB
:101E06003402A501430197010D0A00526F6A6F3A29
:101E1600007C56657264653A007C417A756C3A00BE
:101E26007C636F6C6F723A726F6A6F007C636F6C63
:101E36006F723A7665726465007C636F6C6F723A96
:101E4600617A756C007C636F6C6F723A626C616E5E
:101E5600636F007C636F6C6F723A6E6172616E6A5B
:041E660061003000E7
:00000001FF
